{
	"subcurrency.sol": {
		"Coin": {
			"abi": [
				{
					"inputs": [],
					"stateMutability": "nonpayable",
					"type": "constructor"
				},
				{
					"anonymous": false,
					"inputs": [
						{
							"indexed": true,
							"internalType": "address",
							"name": "to",
							"type": "address"
						},
						{
							"indexed": false,
							"internalType": "uint256",
							"name": "amount",
							"type": "uint256"
						}
					],
					"name": "Mint",
					"type": "event"
				},
				{
					"anonymous": false,
					"inputs": [
						{
							"indexed": true,
							"internalType": "address",
							"name": "from",
							"type": "address"
						},
						{
							"indexed": true,
							"internalType": "address",
							"name": "to",
							"type": "address"
						},
						{
							"indexed": false,
							"internalType": "uint256",
							"name": "amount",
							"type": "uint256"
						}
					],
					"name": "Transfer",
					"type": "event"
				},
				{
					"inputs": [
						{
							"internalType": "address",
							"name": "",
							"type": "address"
						}
					],
					"name": "balanceOf",
					"outputs": [
						{
							"internalType": "uint256",
							"name": "",
							"type": "uint256"
						}
					],
					"stateMutability": "view",
					"type": "function"
				},
				{
					"inputs": [
						{
							"internalType": "address",
							"name": "receiver",
							"type": "address"
						},
						{
							"internalType": "uint256",
							"name": "amount",
							"type": "uint256"
						}
					],
					"name": "mint",
					"outputs": [],
					"stateMutability": "nonpayable",
					"type": "function"
				},
				{
					"inputs": [],
					"name": "minter",
					"outputs": [
						{
							"internalType": "address",
							"name": "",
							"type": "address"
						}
					],
					"stateMutability": "view",
					"type": "function"
				},
				{
					"inputs": [],
					"name": "totalSupply",
					"outputs": [
						{
							"internalType": "uint256",
							"name": "",
							"type": "uint256"
						}
					],
					"stateMutability": "view",
					"type": "function"
				},
				{
					"inputs": [
						{
							"internalType": "address",
							"name": "receiver",
							"type": "address"
						},
						{
							"internalType": "uint256",
							"name": "amount",
							"type": "uint256"
						}
					],
					"name": "transfer",
					"outputs": [],
					"stateMutability": "nonpayable",
					"type": "function"
				},
				{
					"inputs": [
						{
							"internalType": "uint256",
							"name": "",
							"type": "uint256"
						}
					],
					"name": "user",
					"outputs": [
						{
							"internalType": "address",
							"name": "",
							"type": "address"
						}
					],
					"stateMutability": "view",
					"type": "function"
				}
			],
			"devdoc": {
				"kind": "dev",
				"methods": {},
				"version": 1
			},
			"evm": {
				"assembly": "    /* \"subcurrency.sol\":73:1416  contract Coin {\r... */\n  mstore(0x40, 0x80)\n    /* \"subcurrency.sol\":365:614  constructor(){\r... */\n  callvalue\n  dup1\n  iszero\n  tag_1\n  jumpi\n  0x00\n  dup1\n  revert\ntag_1:\n  pop\n    /* \"subcurrency.sol\":398:408  msg.sender */\n  caller\n    /* \"subcurrency.sol\":389:395  minter */\n  0x00\n  dup1\n    /* \"subcurrency.sol\":389:408  minter = msg.sender */\n  0x0100\n  exp\n  dup2\n  sload\n  dup2\n  0xffffffffffffffffffffffffffffffffffffffff\n  mul\n  not\n  and\n  swap1\n  dup4\n  0xffffffffffffffffffffffffffffffffffffffff\n  and\n  mul\n  or\n  swap1\n  sstore\n  pop\n    /* \"subcurrency.sol\":419:434  uint256 initial */\n  0x00\n    /* \"subcurrency.sol\":437:446  1_000_000 */\n  0x0f4240\n    /* \"subcurrency.sol\":419:446  uint256 initial = 1_000_000 */\n  swap1\n  pop\n    /* \"subcurrency.sol\":471:478  initial */\n  dup1\n    /* \"subcurrency.sol\":457:468  totalSupply */\n  0x03\n    /* \"subcurrency.sol\":457:478  totalSupply = initial */\n  dup2\n  swap1\n  sstore\n  pop\n    /* \"subcurrency.sol\":509:516  initial */\n  dup1\n    /* \"subcurrency.sol\":489:498  balanceOf */\n  0x02\n    /* \"subcurrency.sol\":489:506  balanceOf[minter] */\n  0x00\n    /* \"subcurrency.sol\":499:505  minter */\n  dup1\n  0x00\n  swap1\n  sload\n  swap1\n  0x0100\n  exp\n  swap1\n  div\n  0xffffffffffffffffffffffffffffffffffffffff\n  and\n    /* \"subcurrency.sol\":489:506  balanceOf[minter] */\n  0xffffffffffffffffffffffffffffffffffffffff\n  and\n  0xffffffffffffffffffffffffffffffffffffffff\n  and\n  dup2\n  mstore\n  0x20\n  add\n  swap1\n  dup2\n  mstore\n  0x20\n  add\n  0x00\n  keccak256\n    /* \"subcurrency.sol\":489:516  balanceOf[minter] = initial */\n  dup2\n  swap1\n  sstore\n  pop\n    /* \"subcurrency.sol\":537:543  minter */\n  0x00\n  dup1\n  sload\n  swap1\n  0x0100\n  exp\n  swap1\n  div\n  0xffffffffffffffffffffffffffffffffffffffff\n  and\n    /* \"subcurrency.sol\":532:553  Mint(minter, initial) */\n  0xffffffffffffffffffffffffffffffffffffffff\n  and\n  0x0f6798a560793a54c3bcfe86a93cde1e73087d944c0ea20544137d4121396885\n    /* \"subcurrency.sol\":545:552  initial */\n  dup3\n    /* \"subcurrency.sol\":532:553  Mint(minter, initial) */\n  mload(0x40)\n  tag_4\n  swap2\n  swap1\n  tag_5\n  jump\t// in\ntag_4:\n  mload(0x40)\n  dup1\n  swap2\n  sub\n  swap1\n  log2\n    /* \"subcurrency.sol\":590:596  minter */\n  0x00\n  dup1\n  sload\n  swap1\n  0x0100\n  exp\n  swap1\n  div\n  0xffffffffffffffffffffffffffffffffffffffff\n  and\n    /* \"subcurrency.sol\":569:606  Transfer(address(0), minter, initial) */\n  0xffffffffffffffffffffffffffffffffffffffff\n  and\n    /* \"subcurrency.sol\":586:587  0 */\n  0x00\n    /* \"subcurrency.sol\":569:606  Transfer(address(0), minter, initial) */\n  0xffffffffffffffffffffffffffffffffffffffff\n  and\n  0xddf252ad1be2c89b69c2b068fc378daa952ba7f163c4a11628f55a4df523b3ef\n    /* \"subcurrency.sol\":598:605  initial */\n  dup4\n    /* \"subcurrency.sol\":569:606  Transfer(address(0), minter, initial) */\n  mload(0x40)\n  tag_6\n  swap2\n  swap1\n  tag_5\n  jump\t// in\ntag_6:\n  mload(0x40)\n  dup1\n  swap2\n  sub\n  swap1\n  log3\n    /* \"subcurrency.sol\":378:614  {\r... */\n  pop\n    /* \"subcurrency.sol\":73:1416  contract Coin {\r... */\n  jump(tag_7)\n    /* \"#utility.yul\":7:125   */\ntag_9:\n    /* \"#utility.yul\":94:118   */\n  tag_11\n    /* \"#utility.yul\":112:117   */\n  dup2\n    /* \"#utility.yul\":94:118   */\n  tag_12\n  jump\t// in\ntag_11:\n    /* \"#utility.yul\":89:92   */\n  dup3\n    /* \"#utility.yul\":82:119   */\n  mstore\n    /* \"#utility.yul\":7:125   */\n  pop\n  pop\n  jump\t// out\n    /* \"#utility.yul\":131:353   */\ntag_5:\n    /* \"#utility.yul\":224:228   */\n  0x00\n    /* \"#utility.yul\":262:264   */\n  0x20\n    /* \"#utility.yul\":251:260   */\n  dup3\n    /* \"#utility.yul\":247:265   */\n  add\n    /* \"#utility.yul\":239:265   */\n  swap1\n  pop\n    /* \"#utility.yul\":275:346   */\n  tag_14\n    /* \"#utility.yul\":343:344   */\n  0x00\n    /* \"#utility.yul\":332:341   */\n  dup4\n    /* \"#utility.yul\":328:345   */\n  add\n    /* \"#utility.yul\":319:325   */\n  dup5\n    /* \"#utility.yul\":275:346   */\n  tag_9\n  jump\t// in\ntag_14:\n    /* \"#utility.yul\":131:353   */\n  swap3\n  swap2\n  pop\n  pop\n  jump\t// out\n    /* \"#utility.yul\":359:436   */\ntag_12:\n    /* \"#utility.yul\":396:403   */\n  0x00\n    /* \"#utility.yul\":425:430   */\n  dup2\n    /* \"#utility.yul\":414:430   */\n  swap1\n  pop\n    /* \"#utility.yul\":359:436   */\n  swap2\n  swap1\n  pop\n  jump\t// out\n    /* \"subcurrency.sol\":73:1416  contract Coin {\r... */\ntag_7:\n  dataSize(sub_0)\n  dup1\n  dataOffset(sub_0)\n  0x00\n  codecopy\n  0x00\n  return\nstop\n\nsub_0: assembly {\n        /* \"subcurrency.sol\":73:1416  contract Coin {\r... */\n      mstore(0x40, 0x80)\n      callvalue\n      dup1\n      iszero\n      tag_1\n      jumpi\n      0x00\n      dup1\n      revert\n    tag_1:\n      pop\n      jumpi(tag_2, lt(calldatasize, 0x04))\n      shr(0xe0, calldataload(0x00))\n      dup1\n      0x07546172\n      eq\n      tag_3\n      jumpi\n      dup1\n      0x18160ddd\n      eq\n      tag_4\n      jumpi\n      dup1\n      0x40c10f19\n      eq\n      tag_5\n      jumpi\n      dup1\n      0x553275be\n      eq\n      tag_6\n      jumpi\n      dup1\n      0x70a08231\n      eq\n      tag_7\n      jumpi\n      dup1\n      0xa9059cbb\n      eq\n      tag_8\n      jumpi\n    tag_2:\n      0x00\n      dup1\n      revert\n        /* \"subcurrency.sol\":94:115  address public minter */\n    tag_3:\n      tag_9\n      tag_10\n      jump\t// in\n    tag_9:\n      mload(0x40)\n      tag_11\n      swap2\n      swap1\n      tag_12\n      jump\t// in\n    tag_11:\n      mload(0x40)\n      dup1\n      swap2\n      sub\n      swap1\n      return\n        /* \"subcurrency.sol\":196:222  uint256 public totalSupply */\n    tag_4:\n      tag_13\n      tag_14\n      jump\t// in\n    tag_13:\n      mload(0x40)\n      tag_15\n      swap2\n      swap1\n      tag_16\n      jump\t// in\n    tag_15:\n      mload(0x40)\n      dup1\n      swap2\n      sub\n      swap1\n      return\n        /* \"subcurrency.sol\":753:1060  function mint(address receiver, uint amount)public onlyOwner{\r... */\n    tag_5:\n      tag_17\n      0x04\n      dup1\n      calldatasize\n      sub\n      dup2\n      add\n      swap1\n      tag_18\n      swap2\n      swap1\n      tag_19\n      jump\t// in\n    tag_18:\n      tag_20\n      jump\t// in\n    tag_17:\n      stop\n        /* \"subcurrency.sol\":122:143  address[] public user */\n    tag_6:\n      tag_21\n      0x04\n      dup1\n      calldatasize\n      sub\n      dup2\n      add\n      swap1\n      tag_22\n      swap2\n      swap1\n      tag_23\n      jump\t// in\n    tag_22:\n      tag_24\n      jump\t// in\n    tag_21:\n      mload(0x40)\n      tag_25\n      swap2\n      swap1\n      tag_12\n      jump\t// in\n    tag_25:\n      mload(0x40)\n      dup1\n      swap2\n      sub\n      swap1\n      return\n        /* \"subcurrency.sol\":150:189  mapping(address=>uint) public balanceOf */\n    tag_7:\n      tag_26\n      0x04\n      dup1\n      calldatasize\n      sub\n      dup2\n      add\n      swap1\n      tag_27\n      swap2\n      swap1\n      tag_28\n      jump\t// in\n    tag_27:\n      tag_29\n      jump\t// in\n    tag_26:\n      mload(0x40)\n      tag_30\n      swap2\n      swap1\n      tag_16\n      jump\t// in\n    tag_30:\n      mload(0x40)\n      dup1\n      swap2\n      sub\n      swap1\n      return\n        /* \"subcurrency.sol\":1068:1413  function transfer(address receiver, uint amount)public{\r... */\n    tag_8:\n      tag_31\n      0x04\n      dup1\n      calldatasize\n      sub\n      dup2\n      add\n      swap1\n      tag_32\n      swap2\n      swap1\n      tag_19\n      jump\t// in\n    tag_32:\n      tag_33\n      jump\t// in\n    tag_31:\n      stop\n        /* \"subcurrency.sol\":94:115  address public minter */\n    tag_10:\n      0x00\n      dup1\n      sload\n      swap1\n      0x0100\n      exp\n      swap1\n      div\n      0xffffffffffffffffffffffffffffffffffffffff\n      and\n      dup2\n      jump\t// out\n        /* \"subcurrency.sol\":196:222  uint256 public totalSupply */\n    tag_14:\n      sload(0x03)\n      dup2\n      jump\t// out\n        /* \"subcurrency.sol\":753:1060  function mint(address receiver, uint amount)public onlyOwner{\r... */\n    tag_20:\n        /* \"subcurrency.sol\":675:681  minter */\n      0x00\n      dup1\n      sload\n      swap1\n      0x0100\n      exp\n      swap1\n      div\n      0xffffffffffffffffffffffffffffffffffffffff\n      and\n        /* \"subcurrency.sol\":661:681  msg.sender == minter */\n      0xffffffffffffffffffffffffffffffffffffffff\n      and\n        /* \"subcurrency.sol\":661:671  msg.sender */\n      caller\n        /* \"subcurrency.sol\":661:681  msg.sender == minter */\n      0xffffffffffffffffffffffffffffffffffffffff\n      and\n      eq\n        /* \"subcurrency.sol\":653:719  require(msg.sender == minter, \"Only owner can call this function\") */\n      tag_35\n      jumpi\n      mload(0x40)\n      0x08c379a000000000000000000000000000000000000000000000000000000000\n      dup2\n      mstore\n      0x04\n      add\n      tag_36\n      swap1\n      tag_37\n      jump\t// in\n    tag_36:\n      mload(0x40)\n      dup1\n      swap2\n      sub\n      swap1\n      revert\n    tag_35:\n        /* \"subcurrency.sol\":852:853  0 */\n      0x00\n        /* \"subcurrency.sol\":832:854  receiver != address(0) */\n      0xffffffffffffffffffffffffffffffffffffffff\n      and\n        /* \"subcurrency.sol\":832:840  receiver */\n      dup3\n        /* \"subcurrency.sol\":832:854  receiver != address(0) */\n      0xffffffffffffffffffffffffffffffffffffffff\n      and\n      eq\n      iszero\n        /* \"subcurrency.sol\":824:889  require(receiver != address(0), \"Reciever can't be zero address\") */\n      tag_39\n      jumpi\n      mload(0x40)\n      0x08c379a000000000000000000000000000000000000000000000000000000000\n      dup2\n      mstore\n      0x04\n      add\n      tag_40\n      swap1\n      tag_41\n      jump\t// in\n    tag_40:\n      mload(0x40)\n      dup1\n      swap2\n      sub\n      swap1\n      revert\n    tag_39:\n        /* \"subcurrency.sol\":915:921  amount */\n      dup1\n        /* \"subcurrency.sol\":900:911  totalSupply */\n      0x03\n      0x00\n        /* \"subcurrency.sol\":900:921  totalSupply += amount */\n      dup3\n      dup3\n      sload\n      tag_42\n      swap2\n      swap1\n      tag_43\n      jump\t// in\n    tag_42:\n      swap3\n      pop\n      pop\n      dup2\n      swap1\n      sstore\n      pop\n        /* \"subcurrency.sol\":955:961  amount */\n      dup1\n        /* \"subcurrency.sol\":932:941  balanceOf */\n      0x02\n        /* \"subcurrency.sol\":932:951  balanceOf[receiver] */\n      0x00\n        /* \"subcurrency.sol\":942:950  receiver */\n      dup5\n        /* \"subcurrency.sol\":932:951  balanceOf[receiver] */\n      0xffffffffffffffffffffffffffffffffffffffff\n      and\n      0xffffffffffffffffffffffffffffffffffffffff\n      and\n      dup2\n      mstore\n      0x20\n      add\n      swap1\n      dup2\n      mstore\n      0x20\n      add\n      0x00\n      keccak256\n      0x00\n        /* \"subcurrency.sol\":932:961  balanceOf[receiver] += amount */\n      dup3\n      dup3\n      sload\n      tag_44\n      swap2\n      swap1\n      tag_43\n      jump\t// in\n    tag_44:\n      swap3\n      pop\n      pop\n      dup2\n      swap1\n      sstore\n      pop\n        /* \"subcurrency.sol\":982:990  receiver */\n      dup2\n        /* \"subcurrency.sol\":977:999  Mint(receiver, amount) */\n      0xffffffffffffffffffffffffffffffffffffffff\n      and\n      0x0f6798a560793a54c3bcfe86a93cde1e73087d944c0ea20544137d4121396885\n        /* \"subcurrency.sol\":992:998  amount */\n      dup3\n        /* \"subcurrency.sol\":977:999  Mint(receiver, amount) */\n      mload(0x40)\n      tag_45\n      swap2\n      swap1\n      tag_16\n      jump\t// in\n    tag_45:\n      mload(0x40)\n      dup1\n      swap2\n      sub\n      swap1\n      log2\n        /* \"subcurrency.sol\":1035:1043  receiver */\n      dup2\n        /* \"subcurrency.sol\":1015:1052  Transfer(address(0),receiver, amount) */\n      0xffffffffffffffffffffffffffffffffffffffff\n      and\n        /* \"subcurrency.sol\":1032:1033  0 */\n      0x00\n        /* \"subcurrency.sol\":1015:1052  Transfer(address(0),receiver, amount) */\n      0xffffffffffffffffffffffffffffffffffffffff\n      and\n      0xddf252ad1be2c89b69c2b068fc378daa952ba7f163c4a11628f55a4df523b3ef\n        /* \"subcurrency.sol\":1045:1051  amount */\n      dup4\n        /* \"subcurrency.sol\":1015:1052  Transfer(address(0),receiver, amount) */\n      mload(0x40)\n      tag_46\n      swap2\n      swap1\n      tag_16\n      jump\t// in\n    tag_46:\n      mload(0x40)\n      dup1\n      swap2\n      sub\n      swap1\n      log3\n        /* \"subcurrency.sol\":753:1060  function mint(address receiver, uint amount)public onlyOwner{\r... */\n      pop\n      pop\n      jump\t// out\n        /* \"subcurrency.sol\":122:143  address[] public user */\n    tag_24:\n      0x01\n      dup2\n      dup2\n      sload\n      dup2\n      lt\n      tag_47\n      jumpi\n      0x00\n      dup1\n      revert\n    tag_47:\n      swap1\n      0x00\n      mstore\n      keccak256(0x00, 0x20)\n      add\n      0x00\n      swap2\n      pop\n      sload\n      swap1\n      0x0100\n      exp\n      swap1\n      div\n      0xffffffffffffffffffffffffffffffffffffffff\n      and\n      dup2\n      jump\t// out\n        /* \"subcurrency.sol\":150:189  mapping(address=>uint) public balanceOf */\n    tag_29:\n      mstore(0x20, 0x02)\n      dup1\n      0x00\n      mstore\n      keccak256(0x00, 0x40)\n      0x00\n      swap2\n      pop\n      swap1\n      pop\n      sload\n      dup2\n      jump\t// out\n        /* \"subcurrency.sol\":1068:1413  function transfer(address receiver, uint amount)public{\r... */\n    tag_33:\n        /* \"subcurrency.sol\":1160:1161  0 */\n      0x00\n        /* \"subcurrency.sol\":1141:1162  receiver!= address(0) */\n      0xffffffffffffffffffffffffffffffffffffffff\n      and\n        /* \"subcurrency.sol\":1141:1149  receiver */\n      dup3\n        /* \"subcurrency.sol\":1141:1162  receiver!= address(0) */\n      0xffffffffffffffffffffffffffffffffffffffff\n      and\n      eq\n      iszero\n        /* \"subcurrency.sol\":1133:1197  require(receiver!= address(0), \"Reciever can't be zero address\") */\n      tag_50\n      jumpi\n      mload(0x40)\n      0x08c379a000000000000000000000000000000000000000000000000000000000\n      dup2\n      mstore\n      0x04\n      add\n      tag_51\n      swap1\n      tag_41\n      jump\t// in\n    tag_51:\n      mload(0x40)\n      dup1\n      swap2\n      sub\n      swap1\n      revert\n    tag_50:\n        /* \"subcurrency.sol\":1241:1247  amount */\n      dup1\n        /* \"subcurrency.sol\":1216:1225  balanceOf */\n      0x02\n        /* \"subcurrency.sol\":1216:1237  balanceOf[msg.sender] */\n      0x00\n        /* \"subcurrency.sol\":1226:1236  msg.sender */\n      caller\n        /* \"subcurrency.sol\":1216:1237  balanceOf[msg.sender] */\n      0xffffffffffffffffffffffffffffffffffffffff\n      and\n      0xffffffffffffffffffffffffffffffffffffffff\n      and\n      dup2\n      mstore\n      0x20\n      add\n      swap1\n      dup2\n      mstore\n      0x20\n      add\n      0x00\n      keccak256\n      sload\n        /* \"subcurrency.sol\":1216:1247  balanceOf[msg.sender] >= amount */\n      lt\n      iszero\n        /* \"subcurrency.sol\":1208:1269  require(balanceOf[msg.sender] >= amount,\"Not enough balance\") */\n      tag_52\n      jumpi\n      mload(0x40)\n      0x08c379a000000000000000000000000000000000000000000000000000000000\n      dup2\n      mstore\n      0x04\n      add\n      tag_53\n      swap1\n      tag_54\n      jump\t// in\n    tag_53:\n      mload(0x40)\n      dup1\n      swap2\n      sub\n      swap1\n      revert\n    tag_52:\n        /* \"subcurrency.sol\":1305:1311  amount */\n      dup1\n        /* \"subcurrency.sol\":1280:1289  balanceOf */\n      0x02\n        /* \"subcurrency.sol\":1280:1301  balanceOf[msg.sender] */\n      0x00\n        /* \"subcurrency.sol\":1290:1300  msg.sender */\n      caller\n        /* \"subcurrency.sol\":1280:1301  balanceOf[msg.sender] */\n      0xffffffffffffffffffffffffffffffffffffffff\n      and\n      0xffffffffffffffffffffffffffffffffffffffff\n      and\n      dup2\n      mstore\n      0x20\n      add\n      swap1\n      dup2\n      mstore\n      0x20\n      add\n      0x00\n      keccak256\n      0x00\n        /* \"subcurrency.sol\":1280:1311  balanceOf[msg.sender] -= amount */\n      dup3\n      dup3\n      sload\n      tag_55\n      swap2\n      swap1\n      tag_56\n      jump\t// in\n    tag_55:\n      swap3\n      pop\n      pop\n      dup2\n      swap1\n      sstore\n      pop\n        /* \"subcurrency.sol\":1345:1351  amount */\n      dup1\n        /* \"subcurrency.sol\":1322:1331  balanceOf */\n      0x02\n        /* \"subcurrency.sol\":1322:1341  balanceOf[receiver] */\n      0x00\n        /* \"subcurrency.sol\":1332:1340  receiver */\n      dup5\n        /* \"subcurrency.sol\":1322:1341  balanceOf[receiver] */\n      0xffffffffffffffffffffffffffffffffffffffff\n      and\n      0xffffffffffffffffffffffffffffffffffffffff\n      and\n      dup2\n      mstore\n      0x20\n      add\n      swap1\n      dup2\n      mstore\n      0x20\n      add\n      0x00\n      keccak256\n      0x00\n        /* \"subcurrency.sol\":1322:1351  balanceOf[receiver] += amount */\n      dup3\n      dup3\n      sload\n      tag_57\n      swap2\n      swap1\n      tag_43\n      jump\t// in\n    tag_57:\n      swap3\n      pop\n      pop\n      dup2\n      swap1\n      sstore\n      pop\n        /* \"subcurrency.sol\":1388:1396  receiver */\n      dup2\n        /* \"subcurrency.sol\":1367:1405  Transfer(msg.sender, receiver, amount) */\n      0xffffffffffffffffffffffffffffffffffffffff\n      and\n        /* \"subcurrency.sol\":1376:1386  msg.sender */\n      caller\n        /* \"subcurrency.sol\":1367:1405  Transfer(msg.sender, receiver, amount) */\n      0xffffffffffffffffffffffffffffffffffffffff\n      and\n      0xddf252ad1be2c89b69c2b068fc378daa952ba7f163c4a11628f55a4df523b3ef\n        /* \"subcurrency.sol\":1398:1404  amount */\n      dup4\n        /* \"subcurrency.sol\":1367:1405  Transfer(msg.sender, receiver, amount) */\n      mload(0x40)\n      tag_58\n      swap2\n      swap1\n      tag_16\n      jump\t// in\n    tag_58:\n      mload(0x40)\n      dup1\n      swap2\n      sub\n      swap1\n      log3\n        /* \"subcurrency.sol\":1068:1413  function transfer(address receiver, uint amount)public{\r... */\n      pop\n      pop\n      jump\t// out\n        /* \"#utility.yul\":7:146   */\n    tag_60:\n        /* \"#utility.yul\":53:58   */\n      0x00\n        /* \"#utility.yul\":91:97   */\n      dup2\n        /* \"#utility.yul\":78:98   */\n      calldataload\n        /* \"#utility.yul\":69:98   */\n      swap1\n      pop\n        /* \"#utility.yul\":107:140   */\n      tag_62\n        /* \"#utility.yul\":134:139   */\n      dup2\n        /* \"#utility.yul\":107:140   */\n      tag_63\n      jump\t// in\n    tag_62:\n        /* \"#utility.yul\":7:146   */\n      swap3\n      swap2\n      pop\n      pop\n      jump\t// out\n        /* \"#utility.yul\":152:291   */\n    tag_64:\n        /* \"#utility.yul\":198:203   */\n      0x00\n        /* \"#utility.yul\":236:242   */\n      dup2\n        /* \"#utility.yul\":223:243   */\n      calldataload\n        /* \"#utility.yul\":214:243   */\n      swap1\n      pop\n        /* \"#utility.yul\":252:285   */\n      tag_66\n        /* \"#utility.yul\":279:284   */\n      dup2\n        /* \"#utility.yul\":252:285   */\n      tag_67\n      jump\t// in\n    tag_66:\n        /* \"#utility.yul\":152:291   */\n      swap3\n      swap2\n      pop\n      pop\n      jump\t// out\n        /* \"#utility.yul\":297:626   */\n    tag_28:\n        /* \"#utility.yul\":356:362   */\n      0x00\n        /* \"#utility.yul\":405:407   */\n      0x20\n        /* \"#utility.yul\":393:402   */\n      dup3\n        /* \"#utility.yul\":384:391   */\n      dup5\n        /* \"#utility.yul\":380:403   */\n      sub\n        /* \"#utility.yul\":376:408   */\n      slt\n        /* \"#utility.yul\":373:492   */\n      iszero\n      tag_69\n      jumpi\n        /* \"#utility.yul\":411:490   */\n      tag_70\n      tag_71\n      jump\t// in\n    tag_70:\n        /* \"#utility.yul\":373:492   */\n    tag_69:\n        /* \"#utility.yul\":531:532   */\n      0x00\n        /* \"#utility.yul\":556:609   */\n      tag_72\n        /* \"#utility.yul\":601:608   */\n      dup5\n        /* \"#utility.yul\":592:598   */\n      dup3\n        /* \"#utility.yul\":581:590   */\n      dup6\n        /* \"#utility.yul\":577:599   */\n      add\n        /* \"#utility.yul\":556:609   */\n      tag_60\n      jump\t// in\n    tag_72:\n        /* \"#utility.yul\":546:609   */\n      swap2\n      pop\n        /* \"#utility.yul\":502:619   */\n      pop\n        /* \"#utility.yul\":297:626   */\n      swap3\n      swap2\n      pop\n      pop\n      jump\t// out\n        /* \"#utility.yul\":632:1106   */\n    tag_19:\n        /* \"#utility.yul\":700:706   */\n      0x00\n        /* \"#utility.yul\":708:714   */\n      dup1\n        /* \"#utility.yul\":757:759   */\n      0x40\n        /* \"#utility.yul\":745:754   */\n      dup4\n        /* \"#utility.yul\":736:743   */\n      dup6\n        /* \"#utility.yul\":732:755   */\n      sub\n        /* \"#utility.yul\":728:760   */\n      slt\n        /* \"#utility.yul\":725:844   */\n      iszero\n      tag_74\n      jumpi\n        /* \"#utility.yul\":763:842   */\n      tag_75\n      tag_71\n      jump\t// in\n    tag_75:\n        /* \"#utility.yul\":725:844   */\n    tag_74:\n        /* \"#utility.yul\":883:884   */\n      0x00\n        /* \"#utility.yul\":908:961   */\n      tag_76\n        /* \"#utility.yul\":953:960   */\n      dup6\n        /* \"#utility.yul\":944:950   */\n      dup3\n        /* \"#utility.yul\":933:942   */\n      dup7\n        /* \"#utility.yul\":929:951   */\n      add\n        /* \"#utility.yul\":908:961   */\n      tag_60\n      jump\t// in\n    tag_76:\n        /* \"#utility.yul\":898:961   */\n      swap3\n      pop\n        /* \"#utility.yul\":854:971   */\n      pop\n        /* \"#utility.yul\":1010:1012   */\n      0x20\n        /* \"#utility.yul\":1036:1089   */\n      tag_77\n        /* \"#utility.yul\":1081:1088   */\n      dup6\n        /* \"#utility.yul\":1072:1078   */\n      dup3\n        /* \"#utility.yul\":1061:1070   */\n      dup7\n        /* \"#utility.yul\":1057:1079   */\n      add\n        /* \"#utility.yul\":1036:1089   */\n      tag_64\n      jump\t// in\n    tag_77:\n        /* \"#utility.yul\":1026:1089   */\n      swap2\n      pop\n        /* \"#utility.yul\":981:1099   */\n      pop\n        /* \"#utility.yul\":632:1106   */\n      swap3\n      pop\n      swap3\n      swap1\n      pop\n      jump\t// out\n        /* \"#utility.yul\":1112:1441   */\n    tag_23:\n        /* \"#utility.yul\":1171:1177   */\n      0x00\n        /* \"#utility.yul\":1220:1222   */\n      0x20\n        /* \"#utility.yul\":1208:1217   */\n      dup3\n        /* \"#utility.yul\":1199:1206   */\n      dup5\n        /* \"#utility.yul\":1195:1218   */\n      sub\n        /* \"#utility.yul\":1191:1223   */\n      slt\n        /* \"#utility.yul\":1188:1307   */\n      iszero\n      tag_79\n      jumpi\n        /* \"#utility.yul\":1226:1305   */\n      tag_80\n      tag_71\n      jump\t// in\n    tag_80:\n        /* \"#utility.yul\":1188:1307   */\n    tag_79:\n        /* \"#utility.yul\":1346:1347   */\n      0x00\n        /* \"#utility.yul\":1371:1424   */\n      tag_81\n        /* \"#utility.yul\":1416:1423   */\n      dup5\n        /* \"#utility.yul\":1407:1413   */\n      dup3\n        /* \"#utility.yul\":1396:1405   */\n      dup6\n        /* \"#utility.yul\":1392:1414   */\n      add\n        /* \"#utility.yul\":1371:1424   */\n      tag_64\n      jump\t// in\n    tag_81:\n        /* \"#utility.yul\":1361:1424   */\n      swap2\n      pop\n        /* \"#utility.yul\":1317:1434   */\n      pop\n        /* \"#utility.yul\":1112:1441   */\n      swap3\n      swap2\n      pop\n      pop\n      jump\t// out\n        /* \"#utility.yul\":1447:1565   */\n    tag_82:\n        /* \"#utility.yul\":1534:1558   */\n      tag_84\n        /* \"#utility.yul\":1552:1557   */\n      dup2\n        /* \"#utility.yul\":1534:1558   */\n      tag_85\n      jump\t// in\n    tag_84:\n        /* \"#utility.yul\":1529:1532   */\n      dup3\n        /* \"#utility.yul\":1522:1559   */\n      mstore\n        /* \"#utility.yul\":1447:1565   */\n      pop\n      pop\n      jump\t// out\n        /* \"#utility.yul\":1571:1937   */\n    tag_86:\n        /* \"#utility.yul\":1713:1716   */\n      0x00\n        /* \"#utility.yul\":1734:1801   */\n      tag_88\n        /* \"#utility.yul\":1798:1800   */\n      0x21\n        /* \"#utility.yul\":1793:1796   */\n      dup4\n        /* \"#utility.yul\":1734:1801   */\n      tag_89\n      jump\t// in\n    tag_88:\n        /* \"#utility.yul\":1727:1801   */\n      swap2\n      pop\n        /* \"#utility.yul\":1810:1903   */\n      tag_90\n        /* \"#utility.yul\":1899:1902   */\n      dup3\n        /* \"#utility.yul\":1810:1903   */\n      tag_91\n      jump\t// in\n    tag_90:\n        /* \"#utility.yul\":1928:1930   */\n      0x40\n        /* \"#utility.yul\":1923:1926   */\n      dup3\n        /* \"#utility.yul\":1919:1931   */\n      add\n        /* \"#utility.yul\":1912:1931   */\n      swap1\n      pop\n        /* \"#utility.yul\":1571:1937   */\n      swap2\n      swap1\n      pop\n      jump\t// out\n        /* \"#utility.yul\":1943:2309   */\n    tag_92:\n        /* \"#utility.yul\":2085:2088   */\n      0x00\n        /* \"#utility.yul\":2106:2173   */\n      tag_94\n        /* \"#utility.yul\":2170:2172   */\n      0x12\n        /* \"#utility.yul\":2165:2168   */\n      dup4\n        /* \"#utility.yul\":2106:2173   */\n      tag_89\n      jump\t// in\n    tag_94:\n        /* \"#utility.yul\":2099:2173   */\n      swap2\n      pop\n        /* \"#utility.yul\":2182:2275   */\n      tag_95\n        /* \"#utility.yul\":2271:2274   */\n      dup3\n        /* \"#utility.yul\":2182:2275   */\n      tag_96\n      jump\t// in\n    tag_95:\n        /* \"#utility.yul\":2300:2302   */\n      0x20\n        /* \"#utility.yul\":2295:2298   */\n      dup3\n        /* \"#utility.yul\":2291:2303   */\n      add\n        /* \"#utility.yul\":2284:2303   */\n      swap1\n      pop\n        /* \"#utility.yul\":1943:2309   */\n      swap2\n      swap1\n      pop\n      jump\t// out\n        /* \"#utility.yul\":2315:2681   */\n    tag_97:\n        /* \"#utility.yul\":2457:2460   */\n      0x00\n        /* \"#utility.yul\":2478:2545   */\n      tag_99\n        /* \"#utility.yul\":2542:2544   */\n      0x1e\n        /* \"#utility.yul\":2537:2540   */\n      dup4\n        /* \"#utility.yul\":2478:2545   */\n      tag_89\n      jump\t// in\n    tag_99:\n        /* \"#utility.yul\":2471:2545   */\n      swap2\n      pop\n        /* \"#utility.yul\":2554:2647   */\n      tag_100\n        /* \"#utility.yul\":2643:2646   */\n      dup3\n        /* \"#utility.yul\":2554:2647   */\n      tag_101\n      jump\t// in\n    tag_100:\n        /* \"#utility.yul\":2672:2674   */\n      0x20\n        /* \"#utility.yul\":2667:2670   */\n      dup3\n        /* \"#utility.yul\":2663:2675   */\n      add\n        /* \"#utility.yul\":2656:2675   */\n      swap1\n      pop\n        /* \"#utility.yul\":2315:2681   */\n      swap2\n      swap1\n      pop\n      jump\t// out\n        /* \"#utility.yul\":2687:2805   */\n    tag_102:\n        /* \"#utility.yul\":2774:2798   */\n      tag_104\n        /* \"#utility.yul\":2792:2797   */\n      dup2\n        /* \"#utility.yul\":2774:2798   */\n      tag_105\n      jump\t// in\n    tag_104:\n        /* \"#utility.yul\":2769:2772   */\n      dup3\n        /* \"#utility.yul\":2762:2799   */\n      mstore\n        /* \"#utility.yul\":2687:2805   */\n      pop\n      pop\n      jump\t// out\n        /* \"#utility.yul\":2811:3033   */\n    tag_12:\n        /* \"#utility.yul\":2904:2908   */\n      0x00\n        /* \"#utility.yul\":2942:2944   */\n      0x20\n        /* \"#utility.yul\":2931:2940   */\n      dup3\n        /* \"#utility.yul\":2927:2945   */\n      add\n        /* \"#utility.yul\":2919:2945   */\n      swap1\n      pop\n        /* \"#utility.yul\":2955:3026   */\n      tag_107\n        /* \"#utility.yul\":3023:3024   */\n      0x00\n        /* \"#utility.yul\":3012:3021   */\n      dup4\n        /* \"#utility.yul\":3008:3025   */\n      add\n        /* \"#utility.yul\":2999:3005   */\n      dup5\n        /* \"#utility.yul\":2955:3026   */\n      tag_82\n      jump\t// in\n    tag_107:\n        /* \"#utility.yul\":2811:3033   */\n      swap3\n      swap2\n      pop\n      pop\n      jump\t// out\n        /* \"#utility.yul\":3039:3458   */\n    tag_37:\n        /* \"#utility.yul\":3205:3209   */\n      0x00\n        /* \"#utility.yul\":3243:3245   */\n      0x20\n        /* \"#utility.yul\":3232:3241   */\n      dup3\n        /* \"#utility.yul\":3228:3246   */\n      add\n        /* \"#utility.yul\":3220:3246   */\n      swap1\n      pop\n        /* \"#utility.yul\":3292:3301   */\n      dup2\n        /* \"#utility.yul\":3286:3290   */\n      dup2\n        /* \"#utility.yul\":3282:3302   */\n      sub\n        /* \"#utility.yul\":3278:3279   */\n      0x00\n        /* \"#utility.yul\":3267:3276   */\n      dup4\n        /* \"#utility.yul\":3263:3280   */\n      add\n        /* \"#utility.yul\":3256:3303   */\n      mstore\n        /* \"#utility.yul\":3320:3451   */\n      tag_109\n        /* \"#utility.yul\":3446:3450   */\n      dup2\n        /* \"#utility.yul\":3320:3451   */\n      tag_86\n      jump\t// in\n    tag_109:\n        /* \"#utility.yul\":3312:3451   */\n      swap1\n      pop\n        /* \"#utility.yul\":3039:3458   */\n      swap2\n      swap1\n      pop\n      jump\t// out\n        /* \"#utility.yul\":3464:3883   */\n    tag_54:\n        /* \"#utility.yul\":3630:3634   */\n      0x00\n        /* \"#utility.yul\":3668:3670   */\n      0x20\n        /* \"#utility.yul\":3657:3666   */\n      dup3\n        /* \"#utility.yul\":3653:3671   */\n      add\n        /* \"#utility.yul\":3645:3671   */\n      swap1\n      pop\n        /* \"#utility.yul\":3717:3726   */\n      dup2\n        /* \"#utility.yul\":3711:3715   */\n      dup2\n        /* \"#utility.yul\":3707:3727   */\n      sub\n        /* \"#utility.yul\":3703:3704   */\n      0x00\n        /* \"#utility.yul\":3692:3701   */\n      dup4\n        /* \"#utility.yul\":3688:3705   */\n      add\n        /* \"#utility.yul\":3681:3728   */\n      mstore\n        /* \"#utility.yul\":3745:3876   */\n      tag_111\n        /* \"#utility.yul\":3871:3875   */\n      dup2\n        /* \"#utility.yul\":3745:3876   */\n      tag_92\n      jump\t// in\n    tag_111:\n        /* \"#utility.yul\":3737:3876   */\n      swap1\n      pop\n        /* \"#utility.yul\":3464:3883   */\n      swap2\n      swap1\n      pop\n      jump\t// out\n        /* \"#utility.yul\":3889:4308   */\n    tag_41:\n        /* \"#utility.yul\":4055:4059   */\n      0x00\n        /* \"#utility.yul\":4093:4095   */\n      0x20\n        /* \"#utility.yul\":4082:4091   */\n      dup3\n        /* \"#utility.yul\":4078:4096   */\n      add\n        /* \"#utility.yul\":4070:4096   */\n      swap1\n      pop\n        /* \"#utility.yul\":4142:4151   */\n      dup2\n        /* \"#utility.yul\":4136:4140   */\n      dup2\n        /* \"#utility.yul\":4132:4152   */\n      sub\n        /* \"#utility.yul\":4128:4129   */\n      0x00\n        /* \"#utility.yul\":4117:4126   */\n      dup4\n        /* \"#utility.yul\":4113:4130   */\n      add\n        /* \"#utility.yul\":4106:4153   */\n      mstore\n        /* \"#utility.yul\":4170:4301   */\n      tag_113\n        /* \"#utility.yul\":4296:4300   */\n      dup2\n        /* \"#utility.yul\":4170:4301   */\n      tag_97\n      jump\t// in\n    tag_113:\n        /* \"#utility.yul\":4162:4301   */\n      swap1\n      pop\n        /* \"#utility.yul\":3889:4308   */\n      swap2\n      swap1\n      pop\n      jump\t// out\n        /* \"#utility.yul\":4314:4536   */\n    tag_16:\n        /* \"#utility.yul\":4407:4411   */\n      0x00\n        /* \"#utility.yul\":4445:4447   */\n      0x20\n        /* \"#utility.yul\":4434:4443   */\n      dup3\n        /* \"#utility.yul\":4430:4448   */\n      add\n        /* \"#utility.yul\":4422:4448   */\n      swap1\n      pop\n        /* \"#utility.yul\":4458:4529   */\n      tag_115\n        /* \"#utility.yul\":4526:4527   */\n      0x00\n        /* \"#utility.yul\":4515:4524   */\n      dup4\n        /* \"#utility.yul\":4511:4528   */\n      add\n        /* \"#utility.yul\":4502:4508   */\n      dup5\n        /* \"#utility.yul\":4458:4529   */\n      tag_102\n      jump\t// in\n    tag_115:\n        /* \"#utility.yul\":4314:4536   */\n      swap3\n      swap2\n      pop\n      pop\n      jump\t// out\n        /* \"#utility.yul\":4623:4792   */\n    tag_89:\n        /* \"#utility.yul\":4707:4718   */\n      0x00\n        /* \"#utility.yul\":4741:4747   */\n      dup3\n        /* \"#utility.yul\":4736:4739   */\n      dup3\n        /* \"#utility.yul\":4729:4748   */\n      mstore\n        /* \"#utility.yul\":4781:4785   */\n      0x20\n        /* \"#utility.yul\":4776:4779   */\n      dup3\n        /* \"#utility.yul\":4772:4786   */\n      add\n        /* \"#utility.yul\":4757:4786   */\n      swap1\n      pop\n        /* \"#utility.yul\":4623:4792   */\n      swap3\n      swap2\n      pop\n      pop\n      jump\t// out\n        /* \"#utility.yul\":4798:5103   */\n    tag_43:\n        /* \"#utility.yul\":4838:4841   */\n      0x00\n        /* \"#utility.yul\":4857:4877   */\n      tag_120\n        /* \"#utility.yul\":4875:4876   */\n      dup3\n        /* \"#utility.yul\":4857:4877   */\n      tag_105\n      jump\t// in\n    tag_120:\n        /* \"#utility.yul\":4852:4877   */\n      swap2\n      pop\n        /* \"#utility.yul\":4891:4911   */\n      tag_121\n        /* \"#utility.yul\":4909:4910   */\n      dup4\n        /* \"#utility.yul\":4891:4911   */\n      tag_105\n      jump\t// in\n    tag_121:\n        /* \"#utility.yul\":4886:4911   */\n      swap3\n      pop\n        /* \"#utility.yul\":5045:5046   */\n      dup3\n        /* \"#utility.yul\":4977:5043   */\n      0xffffffffffffffffffffffffffffffffffffffffffffffffffffffffffffffff\n        /* \"#utility.yul\":4973:5047   */\n      sub\n        /* \"#utility.yul\":4970:4971   */\n      dup3\n        /* \"#utility.yul\":4967:5048   */\n      gt\n        /* \"#utility.yul\":4964:5071   */\n      iszero\n      tag_122\n      jumpi\n        /* \"#utility.yul\":5051:5069   */\n      tag_123\n      tag_124\n      jump\t// in\n    tag_123:\n        /* \"#utility.yul\":4964:5071   */\n    tag_122:\n        /* \"#utility.yul\":5095:5096   */\n      dup3\n        /* \"#utility.yul\":5092:5093   */\n      dup3\n        /* \"#utility.yul\":5088:5097   */\n      add\n        /* \"#utility.yul\":5081:5097   */\n      swap1\n      pop\n        /* \"#utility.yul\":4798:5103   */\n      swap3\n      swap2\n      pop\n      pop\n      jump\t// out\n        /* \"#utility.yul\":5109:5300   */\n    tag_56:\n        /* \"#utility.yul\":5149:5153   */\n      0x00\n        /* \"#utility.yul\":5169:5189   */\n      tag_126\n        /* \"#utility.yul\":5187:5188   */\n      dup3\n        /* \"#utility.yul\":5169:5189   */\n      tag_105\n      jump\t// in\n    tag_126:\n        /* \"#utility.yul\":5164:5189   */\n      swap2\n      pop\n        /* \"#utility.yul\":5203:5223   */\n      tag_127\n        /* \"#utility.yul\":5221:5222   */\n      dup4\n        /* \"#utility.yul\":5203:5223   */\n      tag_105\n      jump\t// in\n    tag_127:\n        /* \"#utility.yul\":5198:5223   */\n      swap3\n      pop\n        /* \"#utility.yul\":5242:5243   */\n      dup3\n        /* \"#utility.yul\":5239:5240   */\n      dup3\n        /* \"#utility.yul\":5236:5244   */\n      lt\n        /* \"#utility.yul\":5233:5267   */\n      iszero\n      tag_128\n      jumpi\n        /* \"#utility.yul\":5247:5265   */\n      tag_129\n      tag_124\n      jump\t// in\n    tag_129:\n        /* \"#utility.yul\":5233:5267   */\n    tag_128:\n        /* \"#utility.yul\":5292:5293   */\n      dup3\n        /* \"#utility.yul\":5289:5290   */\n      dup3\n        /* \"#utility.yul\":5285:5294   */\n      sub\n        /* \"#utility.yul\":5277:5294   */\n      swap1\n      pop\n        /* \"#utility.yul\":5109:5300   */\n      swap3\n      swap2\n      pop\n      pop\n      jump\t// out\n        /* \"#utility.yul\":5306:5402   */\n    tag_85:\n        /* \"#utility.yul\":5343:5350   */\n      0x00\n        /* \"#utility.yul\":5372:5396   */\n      tag_131\n        /* \"#utility.yul\":5390:5395   */\n      dup3\n        /* \"#utility.yul\":5372:5396   */\n      tag_132\n      jump\t// in\n    tag_131:\n        /* \"#utility.yul\":5361:5396   */\n      swap1\n      pop\n        /* \"#utility.yul\":5306:5402   */\n      swap2\n      swap1\n      pop\n      jump\t// out\n        /* \"#utility.yul\":5408:5534   */\n    tag_132:\n        /* \"#utility.yul\":5445:5452   */\n      0x00\n        /* \"#utility.yul\":5485:5527   */\n      0xffffffffffffffffffffffffffffffffffffffff\n        /* \"#utility.yul\":5478:5483   */\n      dup3\n        /* \"#utility.yul\":5474:5528   */\n      and\n        /* \"#utility.yul\":5463:5528   */\n      swap1\n      pop\n        /* \"#utility.yul\":5408:5534   */\n      swap2\n      swap1\n      pop\n      jump\t// out\n        /* \"#utility.yul\":5540:5617   */\n    tag_105:\n        /* \"#utility.yul\":5577:5584   */\n      0x00\n        /* \"#utility.yul\":5606:5611   */\n      dup2\n        /* \"#utility.yul\":5595:5611   */\n      swap1\n      pop\n        /* \"#utility.yul\":5540:5617   */\n      swap2\n      swap1\n      pop\n      jump\t// out\n        /* \"#utility.yul\":5623:5803   */\n    tag_124:\n        /* \"#utility.yul\":5671:5748   */\n      0x4e487b7100000000000000000000000000000000000000000000000000000000\n        /* \"#utility.yul\":5668:5669   */\n      0x00\n        /* \"#utility.yul\":5661:5749   */\n      mstore\n        /* \"#utility.yul\":5768:5772   */\n      0x11\n        /* \"#utility.yul\":5765:5766   */\n      0x04\n        /* \"#utility.yul\":5758:5773   */\n      mstore\n        /* \"#utility.yul\":5792:5796   */\n      0x24\n        /* \"#utility.yul\":5789:5790   */\n      0x00\n        /* \"#utility.yul\":5782:5797   */\n      revert\n        /* \"#utility.yul\":5932:6049   */\n    tag_71:\n        /* \"#utility.yul\":6041:6042   */\n      0x00\n        /* \"#utility.yul\":6038:6039   */\n      dup1\n        /* \"#utility.yul\":6031:6043   */\n      revert\n        /* \"#utility.yul\":6055:6275   */\n    tag_91:\n        /* \"#utility.yul\":6195:6229   */\n      0x4f6e6c79206f776e65722063616e2063616c6c20746869732066756e6374696f\n        /* \"#utility.yul\":6191:6192   */\n      0x00\n        /* \"#utility.yul\":6183:6189   */\n      dup3\n        /* \"#utility.yul\":6179:6193   */\n      add\n        /* \"#utility.yul\":6172:6230   */\n      mstore\n        /* \"#utility.yul\":6264:6267   */\n      0x6e00000000000000000000000000000000000000000000000000000000000000\n        /* \"#utility.yul\":6259:6261   */\n      0x20\n        /* \"#utility.yul\":6251:6257   */\n      dup3\n        /* \"#utility.yul\":6247:6262   */\n      add\n        /* \"#utility.yul\":6240:6268   */\n      mstore\n        /* \"#utility.yul\":6055:6275   */\n      pop\n      jump\t// out\n        /* \"#utility.yul\":6281:6449   */\n    tag_96:\n        /* \"#utility.yul\":6421:6441   */\n      0x4e6f7420656e6f7567682062616c616e63650000000000000000000000000000\n        /* \"#utility.yul\":6417:6418   */\n      0x00\n        /* \"#utility.yul\":6409:6415   */\n      dup3\n        /* \"#utility.yul\":6405:6419   */\n      add\n        /* \"#utility.yul\":6398:6442   */\n      mstore\n        /* \"#utility.yul\":6281:6449   */\n      pop\n      jump\t// out\n        /* \"#utility.yul\":6455:6635   */\n    tag_101:\n        /* \"#utility.yul\":6595:6627   */\n      0x52656369657665722063616e2774206265207a65726f20616464726573730000\n        /* \"#utility.yul\":6591:6592   */\n      0x00\n        /* \"#utility.yul\":6583:6589   */\n      dup3\n        /* \"#utility.yul\":6579:6593   */\n      add\n        /* \"#utility.yul\":6572:6628   */\n      mstore\n        /* \"#utility.yul\":6455:6635   */\n      pop\n      jump\t// out\n        /* \"#utility.yul\":6641:6763   */\n    tag_63:\n        /* \"#utility.yul\":6714:6738   */\n      tag_143\n        /* \"#utility.yul\":6732:6737   */\n      dup2\n        /* \"#utility.yul\":6714:6738   */\n      tag_85\n      jump\t// in\n    tag_143:\n        /* \"#utility.yul\":6707:6712   */\n      dup2\n        /* \"#utility.yul\":6704:6739   */\n      eq\n        /* \"#utility.yul\":6694:6757   */\n      tag_144\n      jumpi\n        /* \"#utility.yul\":6753:6754   */\n      0x00\n        /* \"#utility.yul\":6750:6751   */\n      dup1\n        /* \"#utility.yul\":6743:6755   */\n      revert\n        /* \"#utility.yul\":6694:6757   */\n    tag_144:\n        /* \"#utility.yul\":6641:6763   */\n      pop\n      jump\t// out\n        /* \"#utility.yul\":6769:6891   */\n    tag_67:\n        /* \"#utility.yul\":6842:6866   */\n      tag_146\n        /* \"#utility.yul\":6860:6865   */\n      dup2\n        /* \"#utility.yul\":6842:6866   */\n      tag_105\n      jump\t// in\n    tag_146:\n        /* \"#utility.yul\":6835:6840   */\n      dup2\n        /* \"#utility.yul\":6832:6867   */\n      eq\n        /* \"#utility.yul\":6822:6885   */\n      tag_147\n      jumpi\n        /* \"#utility.yul\":6881:6882   */\n      0x00\n        /* \"#utility.yul\":6878:6879   */\n      dup1\n        /* \"#utility.yul\":6871:6883   */\n      revert\n        /* \"#utility.yul\":6822:6885   */\n    tag_147:\n        /* \"#utility.yul\":6769:6891   */\n      pop\n      jump\t// out\n\n    auxdata: 0xa2646970667358221220723841ac74795226450592ce25e64cda97ff8dcb408797f3a521089b8171fee664736f6c63430008070033\n}\n",
				"bytecode": {
					"linkReferences": {},
					"object": "608060405234801561001057600080fd5b50336000806101000a81548173ffffffffffffffffffffffffffffffffffffffff021916908373ffffffffffffffffffffffffffffffffffffffff1602179055506000620f424090508060038190555080600260008060009054906101000a900473ffffffffffffffffffffffffffffffffffffffff1673ffffffffffffffffffffffffffffffffffffffff1673ffffffffffffffffffffffffffffffffffffffff1681526020019081526020016000208190555060008054906101000a900473ffffffffffffffffffffffffffffffffffffffff1673ffffffffffffffffffffffffffffffffffffffff167f0f6798a560793a54c3bcfe86a93cde1e73087d944c0ea20544137d41213968858260405161012b91906101ce565b60405180910390a260008054906101000a900473ffffffffffffffffffffffffffffffffffffffff1673ffffffffffffffffffffffffffffffffffffffff16600073ffffffffffffffffffffffffffffffffffffffff167fddf252ad1be2c89b69c2b068fc378daa952ba7f163c4a11628f55a4df523b3ef836040516101b191906101ce565b60405180910390a3506101f3565b6101c8816101e9565b82525050565b60006020820190506101e360008301846101bf565b92915050565b6000819050919050565b6109d9806102026000396000f3fe608060405234801561001057600080fd5b50600436106100625760003560e01c8063075461721461006757806318160ddd1461008557806340c10f19146100a3578063553275be146100bf57806370a08231146100ef578063a9059cbb1461011f575b600080fd5b61006f61013b565b60405161007c9190610733565b60405180910390f35b61008d61015f565b60405161009a91906107ae565b60405180910390f35b6100bd60048036038101906100b8919061063f565b610165565b005b6100d960048036038101906100d4919061067f565b61038a565b6040516100e69190610733565b60405180910390f35b61010960048036038101906101049190610612565b6103c9565b60405161011691906107ae565b60405180910390f35b6101396004803603810190610134919061063f565b6103e1565b005b60008054906101000a900473ffffffffffffffffffffffffffffffffffffffff1681565b60035481565b60008054906101000a900473ffffffffffffffffffffffffffffffffffffffff1673ffffffffffffffffffffffffffffffffffffffff163373ffffffffffffffffffffffffffffffffffffffff16146101f3576040517f08c379a00000000000000000000000000000000000000000000000000000000081526004016101ea9061074e565b60405180910390fd5b600073ffffffffffffffffffffffffffffffffffffffff168273ffffffffffffffffffffffffffffffffffffffff161415610263576040517f08c379a000000000000000000000000000000000000000000000000000000000815260040161025a9061078e565b60405180910390fd5b806003600082825461027591906107da565b9250508190555080600260008473ffffffffffffffffffffffffffffffffffffffff1673ffffffffffffffffffffffffffffffffffffffff16815260200190815260200160002060008282546102cb91906107da565b925050819055508173ffffffffffffffffffffffffffffffffffffffff167f0f6798a560793a54c3bcfe86a93cde1e73087d944c0ea20544137d41213968858260405161031891906107ae565b60405180910390a28173ffffffffffffffffffffffffffffffffffffffff16600073ffffffffffffffffffffffffffffffffffffffff167fddf252ad1be2c89b69c2b068fc378daa952ba7f163c4a11628f55a4df523b3ef8360405161037e91906107ae565b60405180910390a35050565b6001818154811061039a57600080fd5b906000526020600020016000915054906101000a900473ffffffffffffffffffffffffffffffffffffffff1681565b60026020528060005260406000206000915090505481565b600073ffffffffffffffffffffffffffffffffffffffff168273ffffffffffffffffffffffffffffffffffffffff161415610451576040517f08c379a00000000000000000000000000000000000000000000000000000000081526004016104489061078e565b60405180910390fd5b80600260003373ffffffffffffffffffffffffffffffffffffffff1673ffffffffffffffffffffffffffffffffffffffff1681526020019081526020016000205410156104d3576040517f08c379a00000000000000000000000000000000000000000000000000000000081526004016104ca9061076e565b60405180910390fd5b80600260003373ffffffffffffffffffffffffffffffffffffffff1673ffffffffffffffffffffffffffffffffffffffff16815260200190815260200160002060008282546105229190610830565b9250508190555080600260008473ffffffffffffffffffffffffffffffffffffffff1673ffffffffffffffffffffffffffffffffffffffff168152602001908152602001600020600082825461057891906107da565b925050819055508173ffffffffffffffffffffffffffffffffffffffff163373ffffffffffffffffffffffffffffffffffffffff167fddf252ad1be2c89b69c2b068fc378daa952ba7f163c4a11628f55a4df523b3ef836040516105dc91906107ae565b60405180910390a35050565b6000813590506105f781610975565b92915050565b60008135905061060c8161098c565b92915050565b600060208284031215610628576106276108cf565b5b6000610636848285016105e8565b91505092915050565b60008060408385031215610656576106556108cf565b5b6000610664858286016105e8565b9250506020610675858286016105fd565b9150509250929050565b600060208284031215610695576106946108cf565b5b60006106a3848285016105fd565b91505092915050565b6106b581610864565b82525050565b60006106c86021836107c9565b91506106d3826108d4565b604082019050919050565b60006106eb6012836107c9565b91506106f682610923565b602082019050919050565b600061070e601e836107c9565b91506107198261094c565b602082019050919050565b61072d81610896565b82525050565b600060208201905061074860008301846106ac565b92915050565b60006020820190508181036000830152610767816106bb565b9050919050565b60006020820190508181036000830152610787816106de565b9050919050565b600060208201905081810360008301526107a781610701565b9050919050565b60006020820190506107c36000830184610724565b92915050565b600082825260208201905092915050565b60006107e582610896565b91506107f083610896565b9250827fffffffffffffffffffffffffffffffffffffffffffffffffffffffffffffffff03821115610825576108246108a0565b5b828201905092915050565b600061083b82610896565b915061084683610896565b925082821015610859576108586108a0565b5b828203905092915050565b600061086f82610876565b9050919050565b600073ffffffffffffffffffffffffffffffffffffffff82169050919050565b6000819050919050565b7f4e487b7100000000000000000000000000000000000000000000000000000000600052601160045260246000fd5b600080fd5b7f4f6e6c79206f776e65722063616e2063616c6c20746869732066756e6374696f60008201527f6e00000000000000000000000000000000000000000000000000000000000000602082015250565b7f4e6f7420656e6f7567682062616c616e63650000000000000000000000000000600082015250565b7f52656369657665722063616e2774206265207a65726f20616464726573730000600082015250565b61097e81610864565b811461098957600080fd5b50565b61099581610896565b81146109a057600080fd5b5056fea2646970667358221220723841ac74795226450592ce25e64cda97ff8dcb408797f3a521089b8171fee664736f6c63430008070033",
					"opcodes": "PUSH1 0x80 PUSH1 0x40 MSTORE CALLVALUE DUP1 ISZERO PUSH2 0x10 JUMPI PUSH1 0x0 DUP1 REVERT JUMPDEST POP CALLER PUSH1 0x0 DUP1 PUSH2 0x100 EXP DUP2 SLOAD DUP2 PUSH20 0xFFFFFFFFFFFFFFFFFFFFFFFFFFFFFFFFFFFFFFFF MUL NOT AND SWAP1 DUP4 PUSH20 0xFFFFFFFFFFFFFFFFFFFFFFFFFFFFFFFFFFFFFFFF AND MUL OR SWAP1 SSTORE POP PUSH1 0x0 PUSH3 0xF4240 SWAP1 POP DUP1 PUSH1 0x3 DUP2 SWAP1 SSTORE POP DUP1 PUSH1 0x2 PUSH1 0x0 DUP1 PUSH1 0x0 SWAP1 SLOAD SWAP1 PUSH2 0x100 EXP SWAP1 DIV PUSH20 0xFFFFFFFFFFFFFFFFFFFFFFFFFFFFFFFFFFFFFFFF AND PUSH20 0xFFFFFFFFFFFFFFFFFFFFFFFFFFFFFFFFFFFFFFFF AND PUSH20 0xFFFFFFFFFFFFFFFFFFFFFFFFFFFFFFFFFFFFFFFF AND DUP2 MSTORE PUSH1 0x20 ADD SWAP1 DUP2 MSTORE PUSH1 0x20 ADD PUSH1 0x0 KECCAK256 DUP2 SWAP1 SSTORE POP PUSH1 0x0 DUP1 SLOAD SWAP1 PUSH2 0x100 EXP SWAP1 DIV PUSH20 0xFFFFFFFFFFFFFFFFFFFFFFFFFFFFFFFFFFFFFFFF AND PUSH20 0xFFFFFFFFFFFFFFFFFFFFFFFFFFFFFFFFFFFFFFFF AND PUSH32 0xF6798A560793A54C3BCFE86A93CDE1E73087D944C0EA20544137D4121396885 DUP3 PUSH1 0x40 MLOAD PUSH2 0x12B SWAP2 SWAP1 PUSH2 0x1CE JUMP JUMPDEST PUSH1 0x40 MLOAD DUP1 SWAP2 SUB SWAP1 LOG2 PUSH1 0x0 DUP1 SLOAD SWAP1 PUSH2 0x100 EXP SWAP1 DIV PUSH20 0xFFFFFFFFFFFFFFFFFFFFFFFFFFFFFFFFFFFFFFFF AND PUSH20 0xFFFFFFFFFFFFFFFFFFFFFFFFFFFFFFFFFFFFFFFF AND PUSH1 0x0 PUSH20 0xFFFFFFFFFFFFFFFFFFFFFFFFFFFFFFFFFFFFFFFF AND PUSH32 0xDDF252AD1BE2C89B69C2B068FC378DAA952BA7F163C4A11628F55A4DF523B3EF DUP4 PUSH1 0x40 MLOAD PUSH2 0x1B1 SWAP2 SWAP1 PUSH2 0x1CE JUMP JUMPDEST PUSH1 0x40 MLOAD DUP1 SWAP2 SUB SWAP1 LOG3 POP PUSH2 0x1F3 JUMP JUMPDEST PUSH2 0x1C8 DUP2 PUSH2 0x1E9 JUMP JUMPDEST DUP3 MSTORE POP POP JUMP JUMPDEST PUSH1 0x0 PUSH1 0x20 DUP3 ADD SWAP1 POP PUSH2 0x1E3 PUSH1 0x0 DUP4 ADD DUP5 PUSH2 0x1BF JUMP JUMPDEST SWAP3 SWAP2 POP POP JUMP JUMPDEST PUSH1 0x0 DUP2 SWAP1 POP SWAP2 SWAP1 POP JUMP JUMPDEST PUSH2 0x9D9 DUP1 PUSH2 0x202 PUSH1 0x0 CODECOPY PUSH1 0x0 RETURN INVALID PUSH1 0x80 PUSH1 0x40 MSTORE CALLVALUE DUP1 ISZERO PUSH2 0x10 JUMPI PUSH1 0x0 DUP1 REVERT JUMPDEST POP PUSH1 0x4 CALLDATASIZE LT PUSH2 0x62 JUMPI PUSH1 0x0 CALLDATALOAD PUSH1 0xE0 SHR DUP1 PUSH4 0x7546172 EQ PUSH2 0x67 JUMPI DUP1 PUSH4 0x18160DDD EQ PUSH2 0x85 JUMPI DUP1 PUSH4 0x40C10F19 EQ PUSH2 0xA3 JUMPI DUP1 PUSH4 0x553275BE EQ PUSH2 0xBF JUMPI DUP1 PUSH4 0x70A08231 EQ PUSH2 0xEF JUMPI DUP1 PUSH4 0xA9059CBB EQ PUSH2 0x11F JUMPI JUMPDEST PUSH1 0x0 DUP1 REVERT JUMPDEST PUSH2 0x6F PUSH2 0x13B JUMP JUMPDEST PUSH1 0x40 MLOAD PUSH2 0x7C SWAP2 SWAP1 PUSH2 0x733 JUMP JUMPDEST PUSH1 0x40 MLOAD DUP1 SWAP2 SUB SWAP1 RETURN JUMPDEST PUSH2 0x8D PUSH2 0x15F JUMP JUMPDEST PUSH1 0x40 MLOAD PUSH2 0x9A SWAP2 SWAP1 PUSH2 0x7AE JUMP JUMPDEST PUSH1 0x40 MLOAD DUP1 SWAP2 SUB SWAP1 RETURN JUMPDEST PUSH2 0xBD PUSH1 0x4 DUP1 CALLDATASIZE SUB DUP2 ADD SWAP1 PUSH2 0xB8 SWAP2 SWAP1 PUSH2 0x63F JUMP JUMPDEST PUSH2 0x165 JUMP JUMPDEST STOP JUMPDEST PUSH2 0xD9 PUSH1 0x4 DUP1 CALLDATASIZE SUB DUP2 ADD SWAP1 PUSH2 0xD4 SWAP2 SWAP1 PUSH2 0x67F JUMP JUMPDEST PUSH2 0x38A JUMP JUMPDEST PUSH1 0x40 MLOAD PUSH2 0xE6 SWAP2 SWAP1 PUSH2 0x733 JUMP JUMPDEST PUSH1 0x40 MLOAD DUP1 SWAP2 SUB SWAP1 RETURN JUMPDEST PUSH2 0x109 PUSH1 0x4 DUP1 CALLDATASIZE SUB DUP2 ADD SWAP1 PUSH2 0x104 SWAP2 SWAP1 PUSH2 0x612 JUMP JUMPDEST PUSH2 0x3C9 JUMP JUMPDEST PUSH1 0x40 MLOAD PUSH2 0x116 SWAP2 SWAP1 PUSH2 0x7AE JUMP JUMPDEST PUSH1 0x40 MLOAD DUP1 SWAP2 SUB SWAP1 RETURN JUMPDEST PUSH2 0x139 PUSH1 0x4 DUP1 CALLDATASIZE SUB DUP2 ADD SWAP1 PUSH2 0x134 SWAP2 SWAP1 PUSH2 0x63F JUMP JUMPDEST PUSH2 0x3E1 JUMP JUMPDEST STOP JUMPDEST PUSH1 0x0 DUP1 SLOAD SWAP1 PUSH2 0x100 EXP SWAP1 DIV PUSH20 0xFFFFFFFFFFFFFFFFFFFFFFFFFFFFFFFFFFFFFFFF AND DUP2 JUMP JUMPDEST PUSH1 0x3 SLOAD DUP2 JUMP JUMPDEST PUSH1 0x0 DUP1 SLOAD SWAP1 PUSH2 0x100 EXP SWAP1 DIV PUSH20 0xFFFFFFFFFFFFFFFFFFFFFFFFFFFFFFFFFFFFFFFF AND PUSH20 0xFFFFFFFFFFFFFFFFFFFFFFFFFFFFFFFFFFFFFFFF AND CALLER PUSH20 0xFFFFFFFFFFFFFFFFFFFFFFFFFFFFFFFFFFFFFFFF AND EQ PUSH2 0x1F3 JUMPI PUSH1 0x40 MLOAD PUSH32 0x8C379A000000000000000000000000000000000000000000000000000000000 DUP2 MSTORE PUSH1 0x4 ADD PUSH2 0x1EA SWAP1 PUSH2 0x74E JUMP JUMPDEST PUSH1 0x40 MLOAD DUP1 SWAP2 SUB SWAP1 REVERT JUMPDEST PUSH1 0x0 PUSH20 0xFFFFFFFFFFFFFFFFFFFFFFFFFFFFFFFFFFFFFFFF AND DUP3 PUSH20 0xFFFFFFFFFFFFFFFFFFFFFFFFFFFFFFFFFFFFFFFF AND EQ ISZERO PUSH2 0x263 JUMPI PUSH1 0x40 MLOAD PUSH32 0x8C379A000000000000000000000000000000000000000000000000000000000 DUP2 MSTORE PUSH1 0x4 ADD PUSH2 0x25A SWAP1 PUSH2 0x78E JUMP JUMPDEST PUSH1 0x40 MLOAD DUP1 SWAP2 SUB SWAP1 REVERT JUMPDEST DUP1 PUSH1 0x3 PUSH1 0x0 DUP3 DUP3 SLOAD PUSH2 0x275 SWAP2 SWAP1 PUSH2 0x7DA JUMP JUMPDEST SWAP3 POP POP DUP2 SWAP1 SSTORE POP DUP1 PUSH1 0x2 PUSH1 0x0 DUP5 PUSH20 0xFFFFFFFFFFFFFFFFFFFFFFFFFFFFFFFFFFFFFFFF AND PUSH20 0xFFFFFFFFFFFFFFFFFFFFFFFFFFFFFFFFFFFFFFFF AND DUP2 MSTORE PUSH1 0x20 ADD SWAP1 DUP2 MSTORE PUSH1 0x20 ADD PUSH1 0x0 KECCAK256 PUSH1 0x0 DUP3 DUP3 SLOAD PUSH2 0x2CB SWAP2 SWAP1 PUSH2 0x7DA JUMP JUMPDEST SWAP3 POP POP DUP2 SWAP1 SSTORE POP DUP2 PUSH20 0xFFFFFFFFFFFFFFFFFFFFFFFFFFFFFFFFFFFFFFFF AND PUSH32 0xF6798A560793A54C3BCFE86A93CDE1E73087D944C0EA20544137D4121396885 DUP3 PUSH1 0x40 MLOAD PUSH2 0x318 SWAP2 SWAP1 PUSH2 0x7AE JUMP JUMPDEST PUSH1 0x40 MLOAD DUP1 SWAP2 SUB SWAP1 LOG2 DUP2 PUSH20 0xFFFFFFFFFFFFFFFFFFFFFFFFFFFFFFFFFFFFFFFF AND PUSH1 0x0 PUSH20 0xFFFFFFFFFFFFFFFFFFFFFFFFFFFFFFFFFFFFFFFF AND PUSH32 0xDDF252AD1BE2C89B69C2B068FC378DAA952BA7F163C4A11628F55A4DF523B3EF DUP4 PUSH1 0x40 MLOAD PUSH2 0x37E SWAP2 SWAP1 PUSH2 0x7AE JUMP JUMPDEST PUSH1 0x40 MLOAD DUP1 SWAP2 SUB SWAP1 LOG3 POP POP JUMP JUMPDEST PUSH1 0x1 DUP2 DUP2 SLOAD DUP2 LT PUSH2 0x39A JUMPI PUSH1 0x0 DUP1 REVERT JUMPDEST SWAP1 PUSH1 0x0 MSTORE PUSH1 0x20 PUSH1 0x0 KECCAK256 ADD PUSH1 0x0 SWAP2 POP SLOAD SWAP1 PUSH2 0x100 EXP SWAP1 DIV PUSH20 0xFFFFFFFFFFFFFFFFFFFFFFFFFFFFFFFFFFFFFFFF AND DUP2 JUMP JUMPDEST PUSH1 0x2 PUSH1 0x20 MSTORE DUP1 PUSH1 0x0 MSTORE PUSH1 0x40 PUSH1 0x0 KECCAK256 PUSH1 0x0 SWAP2 POP SWAP1 POP SLOAD DUP2 JUMP JUMPDEST PUSH1 0x0 PUSH20 0xFFFFFFFFFFFFFFFFFFFFFFFFFFFFFFFFFFFFFFFF AND DUP3 PUSH20 0xFFFFFFFFFFFFFFFFFFFFFFFFFFFFFFFFFFFFFFFF AND EQ ISZERO PUSH2 0x451 JUMPI PUSH1 0x40 MLOAD PUSH32 0x8C379A000000000000000000000000000000000000000000000000000000000 DUP2 MSTORE PUSH1 0x4 ADD PUSH2 0x448 SWAP1 PUSH2 0x78E JUMP JUMPDEST PUSH1 0x40 MLOAD DUP1 SWAP2 SUB SWAP1 REVERT JUMPDEST DUP1 PUSH1 0x2 PUSH1 0x0 CALLER PUSH20 0xFFFFFFFFFFFFFFFFFFFFFFFFFFFFFFFFFFFFFFFF AND PUSH20 0xFFFFFFFFFFFFFFFFFFFFFFFFFFFFFFFFFFFFFFFF AND DUP2 MSTORE PUSH1 0x20 ADD SWAP1 DUP2 MSTORE PUSH1 0x20 ADD PUSH1 0x0 KECCAK256 SLOAD LT ISZERO PUSH2 0x4D3 JUMPI PUSH1 0x40 MLOAD PUSH32 0x8C379A000000000000000000000000000000000000000000000000000000000 DUP2 MSTORE PUSH1 0x4 ADD PUSH2 0x4CA SWAP1 PUSH2 0x76E JUMP JUMPDEST PUSH1 0x40 MLOAD DUP1 SWAP2 SUB SWAP1 REVERT JUMPDEST DUP1 PUSH1 0x2 PUSH1 0x0 CALLER PUSH20 0xFFFFFFFFFFFFFFFFFFFFFFFFFFFFFFFFFFFFFFFF AND PUSH20 0xFFFFFFFFFFFFFFFFFFFFFFFFFFFFFFFFFFFFFFFF AND DUP2 MSTORE PUSH1 0x20 ADD SWAP1 DUP2 MSTORE PUSH1 0x20 ADD PUSH1 0x0 KECCAK256 PUSH1 0x0 DUP3 DUP3 SLOAD PUSH2 0x522 SWAP2 SWAP1 PUSH2 0x830 JUMP JUMPDEST SWAP3 POP POP DUP2 SWAP1 SSTORE POP DUP1 PUSH1 0x2 PUSH1 0x0 DUP5 PUSH20 0xFFFFFFFFFFFFFFFFFFFFFFFFFFFFFFFFFFFFFFFF AND PUSH20 0xFFFFFFFFFFFFFFFFFFFFFFFFFFFFFFFFFFFFFFFF AND DUP2 MSTORE PUSH1 0x20 ADD SWAP1 DUP2 MSTORE PUSH1 0x20 ADD PUSH1 0x0 KECCAK256 PUSH1 0x0 DUP3 DUP3 SLOAD PUSH2 0x578 SWAP2 SWAP1 PUSH2 0x7DA JUMP JUMPDEST SWAP3 POP POP DUP2 SWAP1 SSTORE POP DUP2 PUSH20 0xFFFFFFFFFFFFFFFFFFFFFFFFFFFFFFFFFFFFFFFF AND CALLER PUSH20 0xFFFFFFFFFFFFFFFFFFFFFFFFFFFFFFFFFFFFFFFF AND PUSH32 0xDDF252AD1BE2C89B69C2B068FC378DAA952BA7F163C4A11628F55A4DF523B3EF DUP4 PUSH1 0x40 MLOAD PUSH2 0x5DC SWAP2 SWAP1 PUSH2 0x7AE JUMP JUMPDEST PUSH1 0x40 MLOAD DUP1 SWAP2 SUB SWAP1 LOG3 POP POP JUMP JUMPDEST PUSH1 0x0 DUP2 CALLDATALOAD SWAP1 POP PUSH2 0x5F7 DUP2 PUSH2 0x975 JUMP JUMPDEST SWAP3 SWAP2 POP POP JUMP JUMPDEST PUSH1 0x0 DUP2 CALLDATALOAD SWAP1 POP PUSH2 0x60C DUP2 PUSH2 0x98C JUMP JUMPDEST SWAP3 SWAP2 POP POP JUMP JUMPDEST PUSH1 0x0 PUSH1 0x20 DUP3 DUP5 SUB SLT ISZERO PUSH2 0x628 JUMPI PUSH2 0x627 PUSH2 0x8CF JUMP JUMPDEST JUMPDEST PUSH1 0x0 PUSH2 0x636 DUP5 DUP3 DUP6 ADD PUSH2 0x5E8 JUMP JUMPDEST SWAP2 POP POP SWAP3 SWAP2 POP POP JUMP JUMPDEST PUSH1 0x0 DUP1 PUSH1 0x40 DUP4 DUP6 SUB SLT ISZERO PUSH2 0x656 JUMPI PUSH2 0x655 PUSH2 0x8CF JUMP JUMPDEST JUMPDEST PUSH1 0x0 PUSH2 0x664 DUP6 DUP3 DUP7 ADD PUSH2 0x5E8 JUMP JUMPDEST SWAP3 POP POP PUSH1 0x20 PUSH2 0x675 DUP6 DUP3 DUP7 ADD PUSH2 0x5FD JUMP JUMPDEST SWAP2 POP POP SWAP3 POP SWAP3 SWAP1 POP JUMP JUMPDEST PUSH1 0x0 PUSH1 0x20 DUP3 DUP5 SUB SLT ISZERO PUSH2 0x695 JUMPI PUSH2 0x694 PUSH2 0x8CF JUMP JUMPDEST JUMPDEST PUSH1 0x0 PUSH2 0x6A3 DUP5 DUP3 DUP6 ADD PUSH2 0x5FD JUMP JUMPDEST SWAP2 POP POP SWAP3 SWAP2 POP POP JUMP JUMPDEST PUSH2 0x6B5 DUP2 PUSH2 0x864 JUMP JUMPDEST DUP3 MSTORE POP POP JUMP JUMPDEST PUSH1 0x0 PUSH2 0x6C8 PUSH1 0x21 DUP4 PUSH2 0x7C9 JUMP JUMPDEST SWAP2 POP PUSH2 0x6D3 DUP3 PUSH2 0x8D4 JUMP JUMPDEST PUSH1 0x40 DUP3 ADD SWAP1 POP SWAP2 SWAP1 POP JUMP JUMPDEST PUSH1 0x0 PUSH2 0x6EB PUSH1 0x12 DUP4 PUSH2 0x7C9 JUMP JUMPDEST SWAP2 POP PUSH2 0x6F6 DUP3 PUSH2 0x923 JUMP JUMPDEST PUSH1 0x20 DUP3 ADD SWAP1 POP SWAP2 SWAP1 POP JUMP JUMPDEST PUSH1 0x0 PUSH2 0x70E PUSH1 0x1E DUP4 PUSH2 0x7C9 JUMP JUMPDEST SWAP2 POP PUSH2 0x719 DUP3 PUSH2 0x94C JUMP JUMPDEST PUSH1 0x20 DUP3 ADD SWAP1 POP SWAP2 SWAP1 POP JUMP JUMPDEST PUSH2 0x72D DUP2 PUSH2 0x896 JUMP JUMPDEST DUP3 MSTORE POP POP JUMP JUMPDEST PUSH1 0x0 PUSH1 0x20 DUP3 ADD SWAP1 POP PUSH2 0x748 PUSH1 0x0 DUP4 ADD DUP5 PUSH2 0x6AC JUMP JUMPDEST SWAP3 SWAP2 POP POP JUMP JUMPDEST PUSH1 0x0 PUSH1 0x20 DUP3 ADD SWAP1 POP DUP2 DUP2 SUB PUSH1 0x0 DUP4 ADD MSTORE PUSH2 0x767 DUP2 PUSH2 0x6BB JUMP JUMPDEST SWAP1 POP SWAP2 SWAP1 POP JUMP JUMPDEST PUSH1 0x0 PUSH1 0x20 DUP3 ADD SWAP1 POP DUP2 DUP2 SUB PUSH1 0x0 DUP4 ADD MSTORE PUSH2 0x787 DUP2 PUSH2 0x6DE JUMP JUMPDEST SWAP1 POP SWAP2 SWAP1 POP JUMP JUMPDEST PUSH1 0x0 PUSH1 0x20 DUP3 ADD SWAP1 POP DUP2 DUP2 SUB PUSH1 0x0 DUP4 ADD MSTORE PUSH2 0x7A7 DUP2 PUSH2 0x701 JUMP JUMPDEST SWAP1 POP SWAP2 SWAP1 POP JUMP JUMPDEST PUSH1 0x0 PUSH1 0x20 DUP3 ADD SWAP1 POP PUSH2 0x7C3 PUSH1 0x0 DUP4 ADD DUP5 PUSH2 0x724 JUMP JUMPDEST SWAP3 SWAP2 POP POP JUMP JUMPDEST PUSH1 0x0 DUP3 DUP3 MSTORE PUSH1 0x20 DUP3 ADD SWAP1 POP SWAP3 SWAP2 POP POP JUMP JUMPDEST PUSH1 0x0 PUSH2 0x7E5 DUP3 PUSH2 0x896 JUMP JUMPDEST SWAP2 POP PUSH2 0x7F0 DUP4 PUSH2 0x896 JUMP JUMPDEST SWAP3 POP DUP3 PUSH32 0xFFFFFFFFFFFFFFFFFFFFFFFFFFFFFFFFFFFFFFFFFFFFFFFFFFFFFFFFFFFFFFFF SUB DUP3 GT ISZERO PUSH2 0x825 JUMPI PUSH2 0x824 PUSH2 0x8A0 JUMP JUMPDEST JUMPDEST DUP3 DUP3 ADD SWAP1 POP SWAP3 SWAP2 POP POP JUMP JUMPDEST PUSH1 0x0 PUSH2 0x83B DUP3 PUSH2 0x896 JUMP JUMPDEST SWAP2 POP PUSH2 0x846 DUP4 PUSH2 0x896 JUMP JUMPDEST SWAP3 POP DUP3 DUP3 LT ISZERO PUSH2 0x859 JUMPI PUSH2 0x858 PUSH2 0x8A0 JUMP JUMPDEST JUMPDEST DUP3 DUP3 SUB SWAP1 POP SWAP3 SWAP2 POP POP JUMP JUMPDEST PUSH1 0x0 PUSH2 0x86F DUP3 PUSH2 0x876 JUMP JUMPDEST SWAP1 POP SWAP2 SWAP1 POP JUMP JUMPDEST PUSH1 0x0 PUSH20 0xFFFFFFFFFFFFFFFFFFFFFFFFFFFFFFFFFFFFFFFF DUP3 AND SWAP1 POP SWAP2 SWAP1 POP JUMP JUMPDEST PUSH1 0x0 DUP2 SWAP1 POP SWAP2 SWAP1 POP JUMP JUMPDEST PUSH32 0x4E487B7100000000000000000000000000000000000000000000000000000000 PUSH1 0x0 MSTORE PUSH1 0x11 PUSH1 0x4 MSTORE PUSH1 0x24 PUSH1 0x0 REVERT JUMPDEST PUSH1 0x0 DUP1 REVERT JUMPDEST PUSH32 0x4F6E6C79206F776E65722063616E2063616C6C20746869732066756E6374696F PUSH1 0x0 DUP3 ADD MSTORE PUSH32 0x6E00000000000000000000000000000000000000000000000000000000000000 PUSH1 0x20 DUP3 ADD MSTORE POP JUMP JUMPDEST PUSH32 0x4E6F7420656E6F7567682062616C616E63650000000000000000000000000000 PUSH1 0x0 DUP3 ADD MSTORE POP JUMP JUMPDEST PUSH32 0x52656369657665722063616E2774206265207A65726F20616464726573730000 PUSH1 0x0 DUP3 ADD MSTORE POP JUMP JUMPDEST PUSH2 0x97E DUP2 PUSH2 0x864 JUMP JUMPDEST DUP2 EQ PUSH2 0x989 JUMPI PUSH1 0x0 DUP1 REVERT JUMPDEST POP JUMP JUMPDEST PUSH2 0x995 DUP2 PUSH2 0x896 JUMP JUMPDEST DUP2 EQ PUSH2 0x9A0 JUMPI PUSH1 0x0 DUP1 REVERT JUMPDEST POP JUMP INVALID LOG2 PUSH5 0x6970667358 0x22 SLT KECCAK256 PUSH19 0x3841AC74795226450592CE25E64CDA97FF8DCB BLOCKHASH DUP8 SWAP8 RETURN 0xA5 0x21 ADDMOD SWAP12 DUP2 PUSH18 0xFEE664736F6C634300080700330000000000 "
				},
				"gasEstimates": {
					"creation": {
						"codeDepositCost": "504200",
						"executionCost": "infinite",
						"totalCost": "infinite"
					},
					"external": {
						"balanceOf(address)": "2880",
						"mint(address,uint256)": "infinite",
						"minter()": "2489",
						"totalSupply()": "2429",
						"transfer(address,uint256)": "infinite",
						"user(uint256)": "5000"
					}
				},
				"methodIdentifiers": {
					"balanceOf(address)": "70a08231",
					"mint(address,uint256)": "40c10f19",
					"minter()": "07546172",
					"totalSupply()": "18160ddd",
					"transfer(address,uint256)": "a9059cbb",
					"user(uint256)": "553275be"
				}
			},
			"storageLayout": {
				"storage": [
					{
						"astId": 3,
						"contract": "subcurrency.sol:Coin",
						"label": "minter",
						"offset": 0,
						"slot": "0",
						"type": "t_address"
					},
					{
						"astId": 6,
						"contract": "subcurrency.sol:Coin",
						"label": "user",
						"offset": 0,
						"slot": "1",
						"type": "t_array(t_address)dyn_storage"
					},
					{
						"astId": 10,
						"contract": "subcurrency.sol:Coin",
						"label": "balanceOf",
						"offset": 0,
						"slot": "2",
						"type": "t_mapping(t_address,t_uint256)"
					},
					{
						"astId": 12,
						"contract": "subcurrency.sol:Coin",
						"label": "totalSupply",
						"offset": 0,
						"slot": "3",
						"type": "t_uint256"
					}
				],
				"types": {
					"t_address": {
						"encoding": "inplace",
						"label": "address",
						"numberOfBytes": "20"
					},
					"t_array(t_address)dyn_storage": {
						"base": "t_address",
						"encoding": "dynamic_array",
						"label": "address[]",
						"numberOfBytes": "32"
					},
					"t_mapping(t_address,t_uint256)": {
						"encoding": "mapping",
						"key": "t_address",
						"label": "mapping(address => uint256)",
						"numberOfBytes": "32",
						"value": "t_uint256"
					},
					"t_uint256": {
						"encoding": "inplace",
						"label": "uint256",
						"numberOfBytes": "32"
					}
				}
			},
			"userdoc": {
				"kind": "user",
				"methods": {},
				"version": 1
			}
		}
	}
}